{
  "contractName": "MultiSigWallet",
  "abi": [
    {
      "inputs": [
        {
          "internalType": "address[]",
          "name": "_owners",
          "type": "address[]"
        },
        {
          "internalType": "uint256",
          "name": "_minimumConfirmations",
          "type": "uint256"
        }
      ],
      "stateMutability": "nonpayable",
      "type": "constructor"
    },
    {
      "anonymous": false,
      "inputs": [
        {
          "indexed": false,
          "internalType": "address",
          "name": "sender",
          "type": "address"
        },
        {
          "indexed": false,
          "internalType": "uint256",
          "name": "value",
          "type": "uint256"
        }
      ],
      "name": "deposit",
      "type": "event"
    },
    {
      "anonymous": false,
      "inputs": [
        {
          "indexed": false,
          "internalType": "address",
          "name": "owner",
          "type": "address"
        },
        {
          "indexed": false,
          "internalType": "uint256",
          "name": "txID",
          "type": "uint256"
        },
        {
          "indexed": false,
          "internalType": "address",
          "name": "receiver",
          "type": "address"
        },
        {
          "indexed": false,
          "internalType": "uint256",
          "name": "amount",
          "type": "uint256"
        },
        {
          "indexed": false,
          "internalType": "string",
          "name": "",
          "type": "string"
        }
      ],
      "name": "transactionAdded",
      "type": "event"
    },
    {
      "anonymous": false,
      "inputs": [
        {
          "indexed": false,
          "internalType": "address",
          "name": "owner",
          "type": "address"
        },
        {
          "indexed": false,
          "internalType": "uint256",
          "name": "txID",
          "type": "uint256"
        },
        {
          "indexed": false,
          "internalType": "string",
          "name": "",
          "type": "string"
        }
      ],
      "name": "transactionConfirmation",
      "type": "event"
    },
    {
      "anonymous": false,
      "inputs": [
        {
          "indexed": false,
          "internalType": "address",
          "name": "owner",
          "type": "address"
        },
        {
          "indexed": false,
          "internalType": "uint256",
          "name": "txID",
          "type": "uint256"
        },
        {
          "indexed": false,
          "internalType": "address",
          "name": "receiver",
          "type": "address"
        },
        {
          "indexed": false,
          "internalType": "uint256",
          "name": "amount",
          "type": "uint256"
        },
        {
          "indexed": false,
          "internalType": "string",
          "name": "",
          "type": "string"
        }
      ],
      "name": "transactionExecuted",
      "type": "event"
    },
    {
      "anonymous": false,
      "inputs": [
        {
          "indexed": false,
          "internalType": "address",
          "name": "owner",
          "type": "address"
        },
        {
          "indexed": false,
          "internalType": "uint256",
          "name": "txID",
          "type": "uint256"
        },
        {
          "indexed": false,
          "internalType": "string",
          "name": "",
          "type": "string"
        }
      ],
      "name": "transactionRevoked",
      "type": "event"
    },
    {
      "inputs": [
        {
          "internalType": "address",
          "name": "",
          "type": "address"
        }
      ],
      "name": "isOwner",
      "outputs": [
        {
          "internalType": "bool",
          "name": "",
          "type": "bool"
        }
      ],
      "stateMutability": "view",
      "type": "function"
    },
    {
      "inputs": [],
      "name": "minimumConfirmations",
      "outputs": [
        {
          "internalType": "uint256",
          "name": "",
          "type": "uint256"
        }
      ],
      "stateMutability": "view",
      "type": "function"
    },
    {
      "inputs": [
        {
          "internalType": "uint256",
          "name": "",
          "type": "uint256"
        }
      ],
      "name": "owners",
      "outputs": [
        {
          "internalType": "address",
          "name": "",
          "type": "address"
        }
      ],
      "stateMutability": "view",
      "type": "function"
    },
    {
      "inputs": [
        {
          "internalType": "uint256",
          "name": "",
          "type": "uint256"
        }
      ],
      "name": "pendingTransactions",
      "outputs": [
        {
          "internalType": "address",
          "name": "receiver",
          "type": "address"
        },
        {
          "internalType": "uint256",
          "name": "value",
          "type": "uint256"
        },
        {
          "internalType": "bool",
          "name": "executed",
          "type": "bool"
        },
        {
          "internalType": "uint256",
          "name": "confirmations",
          "type": "uint256"
        }
      ],
      "stateMutability": "view",
      "type": "function"
    },
    {
      "stateMutability": "payable",
      "type": "receive"
    },
    {
      "inputs": [],
      "name": "getOwners",
      "outputs": [
        {
          "internalType": "address[]",
          "name": "",
          "type": "address[]"
        }
      ],
      "stateMutability": "view",
      "type": "function"
    },
    {
      "inputs": [],
      "name": "getTransactionsCount",
      "outputs": [
        {
          "internalType": "uint256",
          "name": "",
          "type": "uint256"
        }
      ],
      "stateMutability": "view",
      "type": "function"
    },
    {
      "inputs": [
        {
          "internalType": "address payable",
          "name": "_receiver",
          "type": "address"
        },
        {
          "internalType": "uint256",
          "name": "_value",
          "type": "uint256"
        }
      ],
      "name": "addTransaction",
      "outputs": [],
      "stateMutability": "nonpayable",
      "type": "function"
    },
    {
      "inputs": [
        {
          "internalType": "uint256",
          "name": "_txID",
          "type": "uint256"
        }
      ],
      "name": "confirmTransaction",
      "outputs": [],
      "stateMutability": "nonpayable",
      "type": "function"
    },
    {
      "inputs": [
        {
          "internalType": "uint256",
          "name": "_txID",
          "type": "uint256"
        }
      ],
      "name": "executeTransaction",
      "outputs": [],
      "stateMutability": "nonpayable",
      "type": "function"
    },
    {
      "inputs": [
        {
          "internalType": "uint256",
          "name": "_txID",
          "type": "uint256"
        }
      ],
      "name": "revokeTransaction",
      "outputs": [],
      "stateMutability": "nonpayable",
      "type": "function"
    }
  ],
  "bytecode": "0x60806040523480156200001157600080fd5b5060405162001a2a38038062001a2a833981810160405260408110156200003757600080fd5b81019080805160405193929190846401000000008211156200005857600080fd5b838201915060208201858111156200006f57600080fd5b82518660208202830111640100000000821117156200008d57600080fd5b8083526020830192505050908051906020019060200280838360005b83811015620000c6578082015181840152602081019050620000a9565b505050509050016040526020018051906020019092919050505060038251111562000159576040517f08c379a000000000000000000000000000000000000000000000000000000000815260040180806020018281038252600f8152602001807f546f6f206d616e79206f776e657273000000000000000000000000000000000081525060200191505060405180910390fd5b6000825111620001d1576040517f08c379a00000000000000000000000000000000000000000000000000000000081526004018080602001828103825260158152602001807f496e76616c6964206f776e657273206e756d626572000000000000000000000081525060200191505060405180910390fd5b81518111156200022d576040517f08c379a000000000000000000000000000000000000000000000000000000000815260040180806020018281038252602281526020018062001a086022913960400191505060405180910390fd5b6000811162000288576040517f08c379a000000000000000000000000000000000000000000000000000000000815260040180806020018281038252602281526020018062001a086022913960400191505060405180910390fd5b60008090505b8251811015620004ad57600073ffffffffffffffffffffffffffffffffffffffff16838281518110620002bd57fe5b602002602001015173ffffffffffffffffffffffffffffffffffffffff161415620002e757600080fd5b60036000848381518110620002f857fe5b602002602001015173ffffffffffffffffffffffffffffffffffffffff1673ffffffffffffffffffffffffffffffffffffffff16815260200190815260200160002060009054906101000a900460ff1615620003bc576040517f08c379a00000000000000000000000000000000000000000000000000000000081526004018080602001828103825260148152602001807f6f776e657220616c72656164792065786973747300000000000000000000000081525060200191505060405180910390fd5b600160036000858481518110620003cf57fe5b602002602001015173ffffffffffffffffffffffffffffffffffffffff1673ffffffffffffffffffffffffffffffffffffffff16815260200190815260200160002060006101000a81548160ff02191690831515021790555060008382815181106200043757fe5b60200260200101519080600181540180825580915050600190039060005260206000200160009091909190916101000a81548173ffffffffffffffffffffffffffffffffffffffff021916908373ffffffffffffffffffffffffffffffffffffffff16021790555080806001019150506200028e565b5080600181905550505061154180620004c76000396000f3fe6080604052600436106100955760003560e01c8063735631ad11610059578063735631ad146102da57806384a3727314610315578063a0e67e2b14610370578063c01a8c84146103dc578063ee22610b1461041757610107565b8063025e7c271461010c5780632f54bf6e14610187578063578cb8f9146101f057806363a8374d1461021b5780636bef2699146102af57610107565b36610107577f47e7ef24b3022e382e65b1298581281f0ae273ac4f76464efcf5b06769264f2f3334604051808373ffffffffffffffffffffffffffffffffffffffff1673ffffffffffffffffffffffffffffffffffffffff1681526020018281526020019250505060405180910390a1005b600080fd5b34801561011857600080fd5b506101456004803603602081101561012f57600080fd5b8101908080359060200190929190505050610452565b604051808273ffffffffffffffffffffffffffffffffffffffff1673ffffffffffffffffffffffffffffffffffffffff16815260200191505060405180910390f35b34801561019357600080fd5b506101d6600480360360208110156101aa57600080fd5b81019080803573ffffffffffffffffffffffffffffffffffffffff16906020019092919050505061048e565b604051808215151515815260200191505060405180910390f35b3480156101fc57600080fd5b506102056104ae565b6040518082815260200191505060405180910390f35b34801561022757600080fd5b506102546004803603602081101561023e57600080fd5b81019080803590602001909291905050506104bb565b604051808573ffffffffffffffffffffffffffffffffffffffff1673ffffffffffffffffffffffffffffffffffffffff1681526020018481526020018315151515815260200182815260200194505050505060405180910390f35b3480156102bb57600080fd5b506102c4610525565b6040518082815260200191505060405180910390f35b3480156102e657600080fd5b50610313600480360360208110156102fd57600080fd5b810190808035906020019092919050505061052b565b005b34801561032157600080fd5b5061036e6004803603604081101561033857600080fd5b81019080803573ffffffffffffffffffffffffffffffffffffffff16906020019092919080359060200190929190505050610958565b005b34801561037c57600080fd5b50610385610c8c565b6040518080602001828103825283818151815260200191508051906020019060200280838360005b838110156103c85780820151818401526020810190506103ad565b505050509050019250505060405180910390f35b3480156103e857600080fd5b50610415600480360360208110156103ff57600080fd5b8101908080359060200190929190505050610d1a565b005b34801561042357600080fd5b506104506004803603602081101561043a57600080fd5b81019080803590602001909291905050506110b1565b005b6000818154811061045f57fe5b906000526020600020016000915054906101000a900473ffffffffffffffffffffffffffffffffffffffff1681565b60036020528060005260406000206000915054906101000a900460ff1681565b6000600280549050905090565b600281815481106104c857fe5b90600052602060002090600502016000915090508060000160009054906101000a900473ffffffffffffffffffffffffffffffffffffffff16908060010154908060020160009054906101000a900460ff16908060040154905084565b60015481565b600360003373ffffffffffffffffffffffffffffffffffffffff1673ffffffffffffffffffffffffffffffffffffffff16815260200190815260200160002060009054906101000a900460ff166105ea576040517f08c379a000000000000000000000000000000000000000000000000000000000815260040180806020018281038252600a8152602001807f6f6e776572206f6e6c790000000000000000000000000000000000000000000081525060200191505060405180910390fd5b6002805490508110610664576040517f08c379a00000000000000000000000000000000000000000000000000000000081526004018080602001828103825260148152602001807f5472616e73616374696f6e204944206572726f7200000000000000000000000081525060200191505060405180910390fd5b60006002828154811061067357fe5b906000526020600020906005020190508060020160009054906101000a900460ff1615610708576040517f08c379a000000000000000000000000000000000000000000000000000000000815260040180806020018281038252601c8152602001807f5472616e73616374696f6e20616c72656164792065786563757465640000000081525060200191505060405180910390fd5b8060030160003373ffffffffffffffffffffffffffffffffffffffff1673ffffffffffffffffffffffffffffffffffffffff16815260200190815260200160002060009054906101000a900460ff166107c9576040517f08c379a000000000000000000000000000000000000000000000000000000000815260040180806020018281038252601b8152602001807f5472616e73616374696f6e20616c7265616479207265766f6b6564000000000081525060200191505060405180910390fd5b6000816004015411610843576040517f08c379a000000000000000000000000000000000000000000000000000000000815260040180806020018281038252601a8152602001807f436f6e6669726d6174696f6e7320616c7265616479206174203000000000000081525060200191505060405180910390fd5b60008160030160003373ffffffffffffffffffffffffffffffffffffffff1673ffffffffffffffffffffffffffffffffffffffff16815260200190815260200160002060006101000a81548160ff021916908315150217905550600181600401600082825403925050819055507fb31f535872e6a8d6aa8c8aa41620f804207f1d4b03a3b536a4955d694fca93503383604051808373ffffffffffffffffffffffffffffffffffffffff1673ffffffffffffffffffffffffffffffffffffffff16815260200182815260200180602001828103825260138152602001807f5472616e73616374696f6e207265766f6b656400000000000000000000000000815250602001935050505060405180910390a15050565b600360003373ffffffffffffffffffffffffffffffffffffffff1673ffffffffffffffffffffffffffffffffffffffff16815260200190815260200160002060009054906101000a900460ff16610a17576040517f08c379a000000000000000000000000000000000000000000000000000000000815260040180806020018281038252600a8152602001807f6f6e776572206f6e6c790000000000000000000000000000000000000000000081525060200191505060405180910390fd5b600073ffffffffffffffffffffffffffffffffffffffff168273ffffffffffffffffffffffffffffffffffffffff161415610aba576040517f08c379a00000000000000000000000000000000000000000000000000000000081526004018080602001828103825260098152602001807f416464726573732030000000000000000000000000000000000000000000000081525060200191505060405180910390fd5b60006002805490509050600260405180608001604052808573ffffffffffffffffffffffffffffffffffffffff1681526020018481526020016000151581526020016000815250908060018154018082558091505060019003906000526020600020906005020160009091909190915060008201518160000160006101000a81548173ffffffffffffffffffffffffffffffffffffffff021916908373ffffffffffffffffffffffffffffffffffffffff1602179055506020820151816001015560408201518160020160006101000a81548160ff0219169083151502179055506060820151816004015550507f47eb9469e8d5e87adf77e53f6b93d75ec09e6e9b7f4ee5f86e144d81f3db706733828585604051808573ffffffffffffffffffffffffffffffffffffffff1673ffffffffffffffffffffffffffffffffffffffff1681526020018481526020018373ffffffffffffffffffffffffffffffffffffffff1673ffffffffffffffffffffffffffffffffffffffff16815260200182815260200180602001828103825260158152602001807f4e6577207472616e73616374696f6e20616464656400000000000000000000008152506020019550505050505060405180910390a1505050565b60606000805480602002602001604051908101604052809291908181526020018280548015610d1057602002820191906000526020600020905b8160009054906101000a900473ffffffffffffffffffffffffffffffffffffffff1673ffffffffffffffffffffffffffffffffffffffff1681526020019060010190808311610cc6575b5050505050905090565b600360003373ffffffffffffffffffffffffffffffffffffffff1673ffffffffffffffffffffffffffffffffffffffff16815260200190815260200160002060009054906101000a900460ff16610dd9576040517f08c379a000000000000000000000000000000000000000000000000000000000815260040180806020018281038252600a8152602001807f6f6e776572206f6e6c790000000000000000000000000000000000000000000081525060200191505060405180910390fd5b6002805490508110610e53576040517f08c379a00000000000000000000000000000000000000000000000000000000081526004018080602001828103825260148152602001807f5472616e73616374696f6e204944206572726f7200000000000000000000000081525060200191505060405180910390fd5b600060028281548110610e6257fe5b906000526020600020906005020190508060020160009054906101000a900460ff1615610ef7576040517f08c379a000000000000000000000000000000000000000000000000000000000815260040180806020018281038252601c8152602001807f5472616e73616374696f6e20616c72656164792065786563757465640000000081525060200191505060405180910390fd5b8060030160003373ffffffffffffffffffffffffffffffffffffffff1673ffffffffffffffffffffffffffffffffffffffff16815260200190815260200160002060009054906101000a900460ff1615610f9c576040517f08c379a000000000000000000000000000000000000000000000000000000000815260040180806020018281038252602c8152602001806114e0602c913960400191505060405180910390fd5b60018160030160003373ffffffffffffffffffffffffffffffffffffffff1673ffffffffffffffffffffffffffffffffffffffff16815260200190815260200160002060006101000a81548160ff021916908315150217905550600181600401600082825401925050819055507f9b3a47c48ba7649bf1b960c89c500fa93c506da7bf7695c0f7f21036f0faa6103383604051808373ffffffffffffffffffffffffffffffffffffffff1673ffffffffffffffffffffffffffffffffffffffff16815260200182815260200180602001828103825260158152602001807f5472616e73616374696f6e20636f6e6669726d65640000000000000000000000815250602001935050505060405180910390a15050565b600360003373ffffffffffffffffffffffffffffffffffffffff1673ffffffffffffffffffffffffffffffffffffffff16815260200190815260200160002060009054906101000a900460ff16611170576040517f08c379a000000000000000000000000000000000000000000000000000000000815260040180806020018281038252600a8152602001807f6f6e776572206f6e6c790000000000000000000000000000000000000000000081525060200191505060405180910390fd5b600280828154811061117e57fe5b90600052602060002090600502016004015410156111e7576040517f08c379a00000000000000000000000000000000000000000000000000000000081526004018080602001828103825260268152602001806114ba6026913960400191505060405180910390fd5b6000600282815481106111f657fe5b906000526020600020906005020190508060020160009054906101000a900460ff161561128b576040517f08c379a000000000000000000000000000000000000000000000000000000000815260040180806020018281038252601c8152602001807f5472616e73616374696f6e20616c72656164792065786563757465640000000081525060200191505060405180910390fd5b60018160020160006101000a81548160ff02191690831515021790555060008160000160009054906101000a900473ffffffffffffffffffffffffffffffffffffffff1673ffffffffffffffffffffffffffffffffffffffff16826001015460405180600001905060006040518083038185875af1925050503d8060008114611330576040519150601f19603f3d011682016040523d82523d6000602084013e611335565b606091505b50509050806113ac576040517f08c379a00000000000000000000000000000000000000000000000000000000081526004018080602001828103825260128152602001807f5472616e73616374696f6e206661696c6564000000000000000000000000000081525060200191505060405180910390fd5b7fe839c58f6bb2ab711c2b894f454ecc51a11389980471fcb17662e06be323407833848460000160009054906101000a900473ffffffffffffffffffffffffffffffffffffffff168560010154604051808573ffffffffffffffffffffffffffffffffffffffff1673ffffffffffffffffffffffffffffffffffffffff1681526020018481526020018373ffffffffffffffffffffffffffffffffffffffff1673ffffffffffffffffffffffffffffffffffffffff16815260200182815260200180602001828103825260148152602001807f5472616e73616374696f6e2065786563757465640000000000000000000000008152506020019550505050505060405180910390a150505056fe556e73756666696369656e74207472616e73616374696f6e20636f6e6669726d6174696f6e734f776e65722068617320616c726561647920636f6e6669726d65642074686973207472616e73616374696f6ea2646970667358221220b2ac3321d553f5a1257897c615e1a9160bd987a2dc9be1211c9438d69726f00b64736f6c63430006000033496e76616c6964206d696e696d756d436f6e6669726d6174696f6e732076616c7565",
  "source": "/*smart contract multi sig wallet\nrequirement = 2 of 3\ntotal owners = 3\n\n//for loop solidity\n//How requier msg.sender is in owners array ?\n//How check that owner already approve tx ?\n//How remove tx from txarray ?\n*/\n\npragma solidity >=0.6.0;\n\ncontract MultiSigWallet {\n\tevent deposit(address sender, uint value);\n\tevent transactionAdded(address owner, uint txID, address receiver, uint amount, string);\n\tevent transactionConfirmation(address owner, uint txID, string);\n\tevent transactionExecuted(address owner, uint txID, address receiver, uint amount, string);\n\tevent transactionRevoked(address owner, uint txID, string);\n\n\taddress[] public owners;\n\tuint public minimumConfirmations;\n\n\tstruct Transaction {\n\t\taddress receiver;\n\t\tuint value;\n\t\tbool executed;\n\t\tmapping(address => bool) confirmed;\n\t\tuint confirmations;\n\t}\n\n\tTransaction[] public pendingTransactions;\n\tmapping(address => bool) public isOwner;\n\t\n\tconstructor (address[] memory _owners, uint _minimumConfirmations) public {\n\t\trequire(_owners.length <= 3, 'Too many owners');\n\t\trequire(_owners.length > 0, 'Invalid owners number');\n\t\trequire(_minimumConfirmations <= _owners.length, 'Invalid minimumConfirmations value');\n\t\trequire(_minimumConfirmations > 0, 'Invalid minimumConfirmations value');\n\n\t\tfor(uint i = 0; i<_owners.length; i++){\n\t\t\trequire(_owners[i] != address(0));\n\t\t\trequire(!isOwner[_owners[i]], 'owner already exists');\n\n\t\t\tisOwner[_owners[i]] = true;\n\t\t\towners.push(_owners[i]);\n\t\t}\n\t\tminimumConfirmations = _minimumConfirmations;\n\t}\n\t\n\tmodifier onlyOwner() {\n\t\trequire(isOwner[msg.sender], \"onwer only\");\n\t\t_;\n\t}\n\n\treceive() payable external {\n\t\temit deposit(msg.sender, msg.value);\n\t}\n\n\tfunction getOwners() public view returns(address[] memory) {\n\t\treturn owners;\n\t}\n\n\tfunction getTransactionsCount() public view returns(uint) {\n\t\treturn pendingTransactions.length;\n\t}\n\n\tfunction addTransaction(address payable _receiver, uint _value) public onlyOwner {\n\t\trequire(_receiver != address(0), \"Address 0\");\n\t\t\n\t\tuint txID = pendingTransactions.length;\n\t\t\n\t\tpendingTransactions.push(Transaction({\n\t\t\treceiver: _receiver,\n\t\t\tvalue: _value,\n\t\t\texecuted: false,\n\t\t\tconfirmations: 0\n\t\t}));\n\n\t\temit transactionAdded(msg.sender, txID, _receiver, _value, \"New transaction added\");\n\t}\n\n\tfunction confirmTransaction(uint _txID) public onlyOwner {\n\t\trequire(_txID < pendingTransactions.length, \"Transaction ID error\");\n\n\t\tTransaction storage thisTransaction = pendingTransactions[_txID];\n\t\trequire(!thisTransaction.executed, 'Transaction already executed');\n\t\trequire(!thisTransaction.confirmed[msg.sender], 'Owner has already confirmed this transaction');\n\n\t\tthisTransaction.confirmed[msg.sender] = true;\n\t\tthisTransaction.confirmations += 1;\n\t\t\n\t\temit transactionConfirmation(msg.sender, _txID, \"Transaction confirmed\");\n\t}\n\n\tfunction executeTransaction(uint _txID) public onlyOwner {\n\t\trequire(pendingTransactions[_txID].confirmations >= 2, 'Unsufficient transaction confirmations');\n\n\t\tTransaction storage thisTransaction = pendingTransactions[_txID];\n\n\t\trequire(!thisTransaction.executed, 'Transaction already executed');\n\t\tthisTransaction.executed = true;\n\t\t(bool success, ) = thisTransaction.receiver.call.value(thisTransaction.value)('');\n\t\trequire(success, \"Transaction failed\");\n\t\n\t\temit transactionExecuted(msg.sender, _txID, thisTransaction.receiver, thisTransaction.value, \"Transaction executed\");\n\t}\n\n\tfunction revokeTransaction(uint _txID) public onlyOwner {\n\t\trequire(_txID < pendingTransactions.length, \"Transaction ID error\");\n\n\t\tTransaction storage thisTransaction = pendingTransactions[_txID];\n\t\trequire(!thisTransaction.executed, 'Transaction already executed');\n\t\trequire(thisTransaction.confirmed[msg.sender], 'Transaction already revoked');\n\t\trequire(thisTransaction.confirmations > 0, \"Confirmations already at 0\");\n\n\t\tthisTransaction.confirmed[msg.sender] = false;\n\t\tthisTransaction.confirmations -= 1;\n\t\t\n\t\temit transactionRevoked(msg.sender, _txID, \"Transaction revoked\");\t\n\t}\n}",
  "sourcePath": "/home/who/IT/MultiSigWallet/contracts/MultiSigWallet.sol",
  "compiler": {
    "name": "solc",
    "version": "0.6.0+commit.26b70077.Emscripten.clang"
  },
  "schemaVersion": "3.3.2",
  "updatedAt": "2020-12-03T22:08:46.701Z",
  "devdoc": {
    "methods": {}
  },
  "userdoc": {
    "methods": {}
  }
}